:020000040800F2
:10000000B0490020AD020008A7241008BD03000875
:10001000BD220008DD030008EF30100800000000DA
:10002000000000000000000000000000C7291008C8
:100030001505000800000000E9220008D529100875
:10004000C7020008C7020008C7020008C70200086C
:10005000C7020008C7020008C7020008C70200085C
:10006000C7020008C7020008C7020008C70200084C
:10007000C7020008C7020008C7020008C70200083C
:10008000C7020008C7020008C7020008C70200082C
:1000900021050008C702000875011008C702000802
:1000A000C7020008C7020008C7020008C70200080C
:1000B000F1291008C7020008C7020008C70200089B
:1000C000C7020008C7020008C7020008C7020008EC
:1000D000C70200084D301008C70200082934000884
:1000E000C7020008C702000800000000C70200089D
:1000F000C7020008C7020008C7020008C7020008BC
:10010000C7020008B1271008C7020008C70200088C
:10011000C7020008C7020008C7020008C70200089B
:10012000C7020008C7020008C7020008C70200088B
:10013000C7020008C7020008C7020008310500080E
:1001400000000000000000000000000000000000AF
:10015000C7020008C7020008C7020008C70200085B
:10016000C7020008C7020008C7020008C70200084B
:10017000C7020008C7020008C7020008000000000C
:10018000C7020008C7020008C7020008C70200082B
:10019000C7020008C7020008C7020008C70200081B
:1001A000C7020008C7020008C7020008C70200080B
:1001B000C7020008C7020008C7020008C7020008FB
:1001C000C7020008C7020008C7020008C7020008EB
:1001D000C7020008C7020008C7020008C7020008DB
:1001E000C7020008C7020008C7020008C7020008CB
:1001F000C7020008C7020008C7020008C7020008BB
:10020000C7020008C7020008C7020008C7020008AA
:10021000C7020008C7020008C7020008C70200089A
:10022000C7020008C7020008C7020008000000005B
:10023000C7020008C702000800000000C70200084B
:10024000C7020008C7020008C7020008C70200086A
:10025000C7020008C7020008C7020008C70200085A
:10026000C7020008C7020008C7020008C70200084A
:10027000C7020008C7020008C7020008000000000B
:10028000C7020008C7020008C702000800000000FB
:1002900000000000C7020008DFF80CD000F07CF876
:1002A00000480047554B1008B049002006488047D9
:1002B00006480047FEE7FEE7FEE7FEE7FEE7FEE74B
:1002C000FEE7FEE7FEE7FEE7C928000899020008FE
:1002D0002DE9F05F0546002092469B46884606467B
:1002E000814640241BE02846414647462246FFF00F
:1002F0009DFE53465A46C01A914110D311461846E6
:100300002246FFF07DFE2D1A67EB01084F4622467C
:1003100001200021FFF074FE17EB00094E41201E62
:10032000A4F10104DFDC484631462A464346BDE8D5
:10033000F09F10B5431A934209D28318881803E03E
:1003400010F8011D03F8011D521EF9D210BD40EA3C
:1003500001039B0703D009E008C9121F08C0042A43
:10036000FAD203E011F8013B00F8013B521EF9D22A
:1003700010BDD2B201E000F8012B491EFBD270473C
:100380000022F6E710B513460A4604461946FFF761
:10039000F0FF204610BD0000064C074D06E0E06867
:1003A00040F0010394E8070098471034AC42F6D3BC
:1003B000FFF776FFA84E0008C84E00081EF0040F95
:1003C0000CBFEFF30880EFF3098001F06FBE7047B8
:1003D00001200149086070478401002000BFFEE74A
:1003E00010B500BF2A48006800F4003000B115E0E5
:1003F000BFF34F8FBFF36F8F002026490860BFF314
:100400004F8FBFF36F8F2248006840F400302049BF
:100410000860BFF34F8FBFF36F8F00BF00BF1C4B4F
:100420001B6803F4803303B130E00023184C7034B0
:100430002360BFF34F8F231F1868C0F34E3100BFF6
:10044000C0F3C90200BF43F6E07303EA41134FF063
:10045000404404EA827423430E4C1034236000BFEE
:1004600000BF131EA2F10102EDD10B1EA1F101018B
:10047000E6D1BFF34F8F064B1B6843F48033044C27
:100480002360BFF34F8FBFF36F8F00BF10BD00001D
:1004900014ED00E050EF00E010B504460CB912482E
:1004A00010BD012C01D10020FAE7022C01D10F4828
:1004B000F6E7032C01D10020F2E7042C01D1002043
:1004C000EEE7052C01D10020EAE7062C01D100203F
:1004D000E6E7072C01D10020E2E74FF48E7104A07B
:1004E00000F019F80020DBE7102500203C2D00204B
:1004F0002E2E5C2E2E5C557365725C6273705C737D
:1005000072635C6273705F756172745F6669666F57
:100510002E630000704701B9704700BFFEE700007E
:1005200010B5024800F1A8F810BD000078220020A4
:1005300010B5024800F1A0F810BD0000782200209C
:100540002DE9F041054614461E46D1F804C0BCF121
:10055000000F0AD1D1F810C0D1F808804CEA080C7D
:10056000B1F800804CEA88430BE0D1F810C04CF0A1
:10057000804CD1F808804CEA080CD1F800804CEA95
:10058000080391F82080D1F81CC04CEA086CD1F81F
:1005900018804CEA080CD1F814804CEA080CD1F809
:1005A0000C804CEA0807D5F868C00CFB06FCD5F8AF
:1005B000848008EB8C021360121D1760121D00204E
:1005C00019E000F1030C14F80CC04FEA0C6800F1BC
:1005D000020C14F80CC048EA0C4800F1010C14F8A5
:1005E0000CC048EA0C2C14F800804CEA080CC2F845
:1005F00000C0121D001DDFF81880D1F80CC008EBF8
:100600001C4C9CF800C08445DBD8BDE8F08100009C
:10061000144E100870B50446B3F5804F13D1D1E9DC
:10062000000540EA05108D6840EA05208D692843E1
:100630008D8940EA054054F82250064E3540284343
:1006400044F8220003E06FF0704044F822000020DC
:1006500070BD00000000F0CF70B50246086852F887
:10066000200020F001000E6842F826008868082863
:1006700001D1402500E00025486828438E683043BA
:10068000CE6830430E6930434E6930438E69304343
:10069000CE6930430E6A30434E6A30438E6A30432F
:1006A000CE6A40EA0603086B0343486B0343886B3A
:1006B0000343114C44F4801444F4001444F4E02443
:1006C000086852F82000A04318430E6842F826003C
:1006D000086BB0F5801F07D1086828B1106820F4B6
:1006E00080100E6B30431060086818B110684E6BB4
:1006F00030431060002070BD7FFB080030B503461A
:10070000D1E9000540EA05108D6840EA05208D8991
:1007100040EA0545088A401E45EA0055087D801ECE
:1007200045EA00608D692843551C53F8255005F0B3
:1007300040452843551C43F82500186800F48010F4
:10074000B0F5801F0BD1586820F47004088A401E51
:1007500044EA0054586820F4700020435860002098
:1007600030BD000030B5034693F89840012C01D00D
:10077000022C3ED11868806D084030B91868C06DF1
:1007800040F001001D68E8650EE01868806D0840C3
:10079000884206D11868C06D40F002001D68E86507
:1007A00002E003201D68E86501F4007030B11868AC
:1007B000D0F8E00010431D68C5F8E00001F4806047
:1007C00030B11868D0F8E40010431D68C5F8E400A3
:1007D00000BF1868406D0B4D0D4028431D686865CB
:1007E0000948006840EA9170074D286000BF00206A
:1007F00030BDD3F89C0040F00200C3F89C000120FB
:10080000F6E70000FFFFCF3F14A80040704710B587
:10081000034601B900E000BF93F89800012824D1F5
:1008200051B91868D0F8F00020F07C5040EA02601E
:100830001C68C4F8F00016E001290AD11868D0F845
:10084000A00020F0FE4040EA02601C68C4F8A0004E
:1008500009E01868D0F8B00020F0FE4040EA0260DD
:100860001C68C4F8B000002010BDD3F89C0040F014
:100870000400C3F89C000120F6E77047704701466A
:1008800091F8980001280CD1022081F8980008689E
:10089000806920F001000A6890610020C1F89C0086
:1008A0007047D1F89C0040F00400C1F89C00012082
:1008B000F6E770477047704770477047F8B50246D3
:1008C0000023734DDEE001279F400E6806EA07040F
:1008D000002C71D04E68012E08D04E68022E05D033
:1008E0004E68112E02D04E68122E13D190685F0010
:1008F0000326BE40B0435F00CE68BE4030439060E8
:10090000506801269E40B0430E79C6F300169E4003
:1009100030435060D0685F000326BE40B0435F00A4
:100920008E68BE403043D0604E68022E02D04E68C2
:10093000122E13D1DF0802F1200656F827005E07B9
:10094000F70E0F26BE40B0435F07FF0E0E69BE4094
:100950003043DF0802F1200646F8270010685F00E8
:100960000326BE40B0430E7906F003065F00BE408A
:10097000304310604E6806F08056B6F1805F1BD1A0
:1009800000BF444E366846F00206424F3E603E4687
:10099000366806F00206009600BF00BF3E4E9F0874
:1009A00056F827009E07370F0F26BE40B0433B4E38
:1009B000B24202D100262EE063E0394EB24201D1AC
:1009C000012628E0374EB24201D1022623E0364EFE
:1009D000B24201D103261EE0344EB24201D10426B8
:1009E00019E0334EB24201D1052614E0314EB24235
:1009F00001D106260FE0304EB24201D107260AE0AF
:100A00002E4EB24201D1082605E02D4EB24201D150
:100A1000092600E00A269F073F0FBE4030431E4EC6
:100A20009F0846F827002868A0434E6806F48036E1
:100A3000B6F5803F00D1204328606868A0434E6827
:100A400006F40036B6F5003F00D1204368604FF051
:100A5000B0463068A0434E6806F48016B6F5801F95
:100A600000D120434FF0B04630607068A0434E681C
:100A700006F40016B6F5001F00D120434FF0B04633
:100A800070605B1C0E68DE40002E7FF41CAFF8BD6A
:100A900080000058F444025808040058000002582E
:100AA0000004025800080258000C025800100258B6
:100AB0000014025800180258001C02580020025866
:100AC00000240258014800687047000064010020BB
:100AD00003480068034909780844014908607047E1
:100AE000640100206C0100204178154A11600178F2
:100AF000F9B1121D41681160017B0907C27A41EA10
:100B00000261827A41EAC241427B41EA8241827BB0
:100B100041EA4241C27B41EA0241427A41EA022172
:100B2000027A41EA420102781143054A0832116013
:100B300005E00021024A121D1160121D116070476C
:100B400098ED00E040F00101074A11600649703954
:100B5000096841F48031044A703A1160BFF34F8F45
:100B6000BFF36F8F7047000094ED00E070472DE9F0
:100B7000F05F80460D46164602F176FE074639467E
:100B80002A46334601F00700C0F1070ABAF1040F04
:100B900002D94FF0040A01E0C0F1070AD14600F182
:100BA000040ABAF1070F02D24FF0000A01E0A0F1E7
:100BB000030AD4464FF0010A0AFA09FAAAF1010A17
:100BC0000AEA020A0AFA0CFA4FF0010B0BFA0CFBC4
:100BD000ABF1010B0BEA030B4AEA0B04214640463A
:100BE00002F14AFEBDE8F09F00BF00F00702064B8D
:100BF00019684FF6FF031940044B0B4343EA0221E7
:100C0000014B196000BF70470CED00E00000FA05D1
:100C100070B50146844D2D6805F00303824D2D68A3
:100C2000C5F30530804D2D1D2D68C5F300147E4D94
:100C300014352D68C5F3CC0515FB04F501EE105AEB
:100C4000B8EE411AF0EE410A00286FD023B1012B13
:100C50004ED0022B6BD16BE0734D283D2D68C5F350
:100C600040153DB3704D283D2D68C5F3C1066F4D4D
:100C700025FA06F201EE102AF8EE411A01EE100AEA
:100C8000B8EE411A81EE812A9FED691AC0EE811AF1
:100C9000654D10352D68C5F3080501EE105AB8EE04
:100CA000411A31EE811AF7EE001A31EE211A22EEC6
:100CB000010A1CE001EE100AB8EE411ADFED5D1AE0
:100CC00081EE812A9FED5A1AC0EE811A564D1035D9
:100CD0002D68C5F3080501EE105AB8EE411A31EE41
:100CE000811AF7EE001A31EE211A22EE010A5BE0BA
:100CF00001EE100AB8EE411ADFED4F1A81EE812A9B
:100D00009FED4B1AC0EE811A474D10352D68C5F383
:100D1000080501EE105AB8EE411A31EE811AF7EECD
:100D2000001A31EE211A22EE010A3DE077E01DE0C3
:100D300001EE100AB8EE411A9FED402AC2EE011AE8
:100D40009FED3B1A80EE812A374D10352D68C5F393
:100D5000080501EE105AB8EE411A32EE011AB7EE4C
:100D6000002A31EE021A21EE810A1DE001EE100A7E
:100D7000B8EE411ADFED301A81EE812A9FED2C1A70
:100D8000C0EE811A284D10352D68C5F3080501EE17
:100D9000105AB8EE411A31EE811AF7EE001A31EE10
:100DA000211A22EE010A00BF00BF1F4D10352D6829
:100DB000C5F3462501EE105AB8EE411AF7EE001AB7
:100DC00031EE211AC0EE011ABCEEE11A81ED001AD3
:100DD000154D10352D68C5F3064501EE105AB8EED5
:100DE000411AF7EE001A31EE211AC0EE011ABCEEDC
:100DF000E11A81ED011A0C4D10352D68C5F3066519
:100E000001EE105AB8EE411AF7EE001A31EE211A2F
:100E1000C0EE011ABCEEE11A81ED021A03E00025D2
:100E20000D604D608D6070BD284402580090D00365
:100E3000000000460024744C0024744A20BCBE4BC1
:100E40002DE9F04104460D4614B90120BDE8F081BA
:100E5000BD48006800F00F00A8420ED2BA480068F2
:100E600020F00F002843B84908600846006800F0E9
:100E70000F00A84201D00120E8E7207800F004002C
:100E800004280ED1B1492069096801F07001884237
:100E900007D9AE48006820F0700021690843AB49CB
:100EA0000860207800F00800082811D1A749091D22
:100EB0006069096801F07001884209D9A348001DE2
:100EC000006820F0700061690843A049091D0860AE
:100ED000207800F01000102811D19C49091DA0694C
:100EE000096801F4E061884209D99848001D00684A
:100EF00020F4E060A16908439449091D0860207846
:100F000000F02000202811D190490831E0690968DB
:100F100001F07001884209D98C480830006820F03F
:100F20007000E1690843894908310860207800F0C1
:100F3000020002280ED18549E068096801F00F011E
:100F4000884207D98148006820F00F00E168084313
:100F50007E490860207800F00100002850D07B48CE
:100F6000006820F47060A1680843784908606068F0
:100F7000022807D1754818380068C0F34040F8B916
:100F8000012063E76068032807D1704818380068BB
:100F9000C0F34060A0B9012058E76068012807D17C
:100FA0006A4818380068C0F3002048B901204DE7AE
:100FB000664818380068C0F3800008B9012045E78A
:100FC00062480838006820F00700616808435F49FC
:100FD00008390860FFF776FD064608E0FFF772FD66
:100FE000801B41F28831884201D903202EE75748FF
:100FF0000838006800F038006168B0EBC10FEDD12F
:10100000207800F0020002280ED15049E0680968FB
:1010100001F00F01884207D24C48006820F00F0011
:10102000E1680843494908604748006800F00F003C
:10103000A8420ED94448006820F00F0028434249D6
:1010400008600846006800F00F00A84201D00120A7
:10105000FCE6207800F0040004280ED13B4920690A
:10106000096801F07001884207D23848006820F012
:1010700070002169084335490860207800F00800B5
:10108000082811D13149091D6069096801F0700112
:10109000884209D22D48001D006820F07000616967
:1010A00008432A49091D0860207800F01000102824
:1010B00011D12649091DA069096801F4E06188423F
:1010C00009D22248001D006820F4E060A1690843AD
:1010D0001E49091D0860207800F02000202811D149
:1010E0001A490831E069096801F07001884209D2A3
:1010F00016480830006820F07000E1690843134981
:101100000831086000F064F810490968C1F3032150
:101110000F4A515C01F01F0120FA01F70B480068EB
:1011200000F00F001146085C00F01F0027FA00F0E5
:10113000084908600848076008480068FFF0F8FEA2
:101140008046404682E600000020005218440258C3
:10115000E24D0008740100207001002068010020A9
:1011600010B500F035F80D490968C1F303210C4AA8
:10117000515C01F01F0120FA01F40848006800F0FA
:101180000F001146085C00F01F0024FA00F005492A
:101190000860054804600846006810BD18440258FD
:1011A000E24D0008740100207001002000B5FFF737
:1011B000D7FF05490968C1F30221044A515C01F0D7
:1011C0001F01C84000BD00001C440258E24D000849
:1011D000F0B5824E366806F0380636B1082E15D0C6
:1011E000102E15D0182E7DD114E07C4E103E36689E
:1011F000C6F3401646B1794E103E3668C6F3C107B5
:10120000774E26FA07F000E07548E5E07548E3E020
:101210007548E1E0714E1836366806F003046F4EEB
:1012200018363668C6F305116C4E1C36366806F063
:1012300001056A4E24363668C6F3CC0616FB05F661
:1012400001EE106AB8EE410A002971D024B1012CD8
:1012500050D0022C6DD16DE0604E103E3668C6F362
:1012600040163EB35D4E103E3668C6F3C1075C4E75
:1012700026FA07F301EE103AF8EE411A01EE101AC1
:10128000B8EE411A81EE812A9FED581AC0EE011A7C
:10129000524E20363668C6F3080601EE106AB8EEE4
:1012A000411A31EE811AF7EE001A31EE211A62EE80
:1012B000010A1EE001EE101AB8EE411ADFED4C1AD9
:1012C00081EE812A9FED491AC0EE011A434E203665
:1012D0003668C6F3080601EE106AB8EE411A31EE20
:1012E000811A00E076E0F7EE001A31EE211A62EE84
:1012F000010A5BE001EE101AB8EE411A9FED3D2A9B
:10130000C2EE011A9FED391A80EE012A334E2036C3
:101310003668C6F3080601EE106AB8EE411A32EEDE
:10132000011AB7EE002A31EE021A61EE810A3DE0A1
:101330004EE01DE001EE101AB8EE411ADFED2E1A54
:1013400081EE812A9FED291AC0EE011A234E203624
:101350003668C6F3080601EE106AB8EE411A31EE9F
:10136000811AF7EE001A31EE211A62EE010A1DE031
:1013700001EE101AB8EE411A9FED1E2AC2EE011AB4
:101380009FED1A1A80EE012A144E20363668C6F3F5
:10139000080601EE106AB8EE411A32EE011AB7EEF5
:1013A000002A31EE021A61EE810A00BF00BF0B4E27
:1013B00020363668C6F34626721C01EE102AB8EEB7
:1013C000411AC0EE811ABCEEE11A11EE100A00E0DB
:1013D000002001E0034800BF00BFF0BD10440258E8
:1013E0000090D00300093D0040787D0100000046D8
:1013F0000024744C0024744A20BCBE4B2DE9F047F5
:10140000044614B90120BDE8F087207800F00100FF
:10141000002872D0F748006800F03808F548183006
:10142000D0F80090B8F1100F06D0B8F1180F0FD116
:1014300009F0030002280BD1EE4810380068C0F311
:10144000404000286ED0606800286BD10120DAE7A8
:1014500000BF6068B0F5803F08D1E64810380068EA
:1014600040F48030E349103908602EE0606868B9C4
:10147000E0481038006820F48030DE4910390860F8
:101480000846006820F4802008601EE06068B0F51F
:10149000A02F0DD1D7481038006840F48020D549DE
:1014A000103908600846006840F4803008600CE09D
:1014B000D0481038006820F48030CE4910390860D8
:1014C0000846006820F48020086000BF6068A8B16A
:1014D000FFF7F8FA054608E0FFF7F4FA401B41F27F
:1014E0008831884201D903208DE7C248103800684E
:1014F000C0F340400028EFD014E014E0FFF7E2FA18
:10150000054608E0FFF7DEFA401B41F288318842C9
:1015100001D9032077E7B74810380068C0F340408E
:101520000028EFD100BF207800F0020002287BD114
:10153000B048006800F03808AE481830D0F8009085
:10154000B8F1000F05D0B8F1180F3AD109F0030037
:10155000B0BBA84810380068C0F3800018B1E0683C
:1015600008B901204FE700BFFFF0ACFC41F20301D6
:10157000884219D8206940280AD19E480C38006852
:1015800020F47C3040F400309A490C39086016E0B1
:1015900098480C38006820F47C30216940EA01301A
:1015A00094490C3908600AE092480C38006820F031
:1015B000FE40217C40EA01608E490C39086067E0FA
:1015C000FFE7E06888B38B481038006820F0190006
:1015D000E1680843874910390860FFF773FA054648
:1015E00006E0FFF76FFA401B022801D903200AE743
:1015F000804810380068C0F380000028F1D000BF98
:10160000FFF060FC41F2030188421BD820694028AA
:101610000CD178480C38006820F47C3040F400305D
:1016200074490C39086018E033E017E071480C3851
:10163000006820F47C30216940EA01306D490C39A2
:1016400008600AE06B480C38006820F0FE40217CFE
:1016500040EA016067490C39086019E065481038B4
:10166000006820F00100634910390860FFF72AFA8A
:10167000054606E0FFF726FA401B022801D90320A1
:10168000C1E65C4810380068C0F380000028F1D142
:1016900000BF207800F0100010287CD15548006869
:1016A00000F0380853481830D0F80090B8F1080F0F
:1016B00006D0B8F1180F3DD109F00300012839D147
:1016C0004C4810380068C0F3002020B1E069802841
:1016D00001D0012097E600BFFFF0F4FB41F20301C7
:1016E00088421AD8206A20280AD142480C3800685B
:1016F00020F0F84040F080403E490C39086018E086
:101700003C480C38006820F0F84094F8201040EA7B
:10171000816038490C3908600BE03648001F0068CA
:1017200020F07C5094F8201040EA01603149091FF4
:10173000086067E0E06978B32E481038006840F030
:1017400080002C4910390860FFF7BCF9054606E017
:10175000FFF7B8F9401B022801D9032053E62548BA
:1017600010380068C0F300200028F1D000BFFFF05F
:10177000A9FB41F2030188421CD8206A20280CD121
:101780001C480C38006820F0F84040F080401949AF
:101790000C3908601AE036E019E016480C38006889
:1017A00020F0F84094F8201040EA816011490C398B
:1017B00008600BE00F48001F006820F07C5094F890
:1017C000201040EA01600B49091F08601AE009482F
:1017D0001038006820F08000064910390860FFF7D3
:1017E00071F9054608E0FFF76DF9401B022803D99F
:1017F000032008E610440258F3480068C0F30020B4
:101800000028F0D100BF207800F00800082836D169
:101810006069D0B1EC487430006840F00100EA49DA
:1018200074310860FFF74EF9054606E0FFF74AF904
:10183000401B022801D90320E5E5E3487430006825
:10184000C0F340000028F1D019E0DF487430006890
:1018500020F00100DC4974310860FFF733F90546D8
:1018600006E0FFF72FF9401B022801D90320CAE543
:10187000D54874300068C0F340000028F1D12078CA
:1018800000F02000202830D1A069B8B1CE4800680F
:1018900040F48050CC490860FFF714F9054606E093
:1018A000FFF710F9401B022801D90320ABE5C64819
:1018B0000068C0F340300028F2D016E0C24800684B
:1018C00020F48050C0490860FFF7FCF8054606E0A8
:1018D000FFF7F8F8401B022801D9032093E5BA4826
:1018E0000068C0F340300028F2D1207800F00400F6
:1018F00004287DD1B548006840F48070B349086081
:10190000FFF7E0F8054606E0FFF7DCF8401B642827
:1019100001D9032077E5AD48006800F48070002805
:10192000F2D000BFA068012808D1A7487030006835
:1019300040F00100A449703108602DE0A06868B94A
:10194000A1487030006820F001009F4970310860A4
:101950000846006820F0040008601DE0A068052823
:101960000DD199487030006840F0040096497031FC
:1019700008600846006840F0010008600CE09248EA
:101980007030006820F001008F497031086008460F
:10199000006820F00400086000BFA068A0B1FFF755
:1019A00091F8054608E0FFF78DF8401B41F28831B9
:1019B000884201D9032026E5834870300068C0F3CF
:1019C00040000028EFD013E0FFF77CF8054608E060
:1019D000FFF778F8401B41F28831884201D9032093
:1019E00011E5794870300068C0F340000028EFD15D
:1019F000606A00287DD074481030006800F038001C
:101A0000182877D0606A022875D16F48006820F0E6
:101A100080706D490860FFF755F8054606E0FFF74E
:101A200051F8401B022801D90320ECE46648006805
:101A3000C0F340600028F2D100BFD4E90A1041EAA7
:101A4000001061492831096840F2F332914308439C
:101A50005D4928310860208E401EC0F30800616B8C
:101A6000491E4FF47E4202EA41210843218F491E5C
:101A7000D20102EA014108433C21095D491E1202DC
:101A800002EA0161084350493031086000BF081F75
:101A9000006820F00100091F08604B4834300068DE
:101AA0004FF6F8718843A16C40EAC10046493431D1
:101AB000086045482C30006820F00C00216C084379
:101AC00041492C3108600846006820F00200616C32
:101AD00008433D492C3108600846006840F48030D6
:101AE00008600846006840F4003008600846006856
:101AF00002E066E038E01FE040F48020086008461D
:101B0000006840F0010008602F48006840F08070D5
:101B10002D490860FEF7D6FF054606E0FEF7D2FF26
:101B2000401B022801D903206DE427480068C0F358
:101B300040600028F2D044E02348006820F0807024
:101B400021490860FEF7BEFF054606E0FEF7BAFF32
:101B5000401B022801D9032055E41B480068C0F34C
:101B600040600028F2D12CE017482830076816485A
:101B700030300668606A012821D007F00301A06AAE
:101B800081421CD1C7F30511E06A884217D1C6F320
:101B90000801206B401E814211D1606B401EC6F3CC
:101BA000462188420BD1A06B401EC6F306418842F5
:101BB00005D1E06B401EC6F30661884201D00120CA
:101BC00021E400201FE400000044025800480258AD
:101BD0007047704710B50446FEF7F9FB10BD0000D2
:101BE00070B50446256B2068406BC0F3C03030B13F
:101BF00005F0080018B1204600F1C4FE26E1206877
:101C0000406BC0F30020002876D04FF4807021682C
:101C100088632068C06B4CF23A1188432168C8631E
:101C20002068C06B20F080502168C8632068C068BD
:101C300020F040002168C86005F0080030B305F0CE
:101C4000020010B905F0200050B1206800F076FCC9
:101C500006462EB1A06B3043A0632046FFF7BAFFC3
:101C60007B4821688863012084F8340000202063C9
:101C700005F0010010B905F0020018B1204600F18E
:101C800085F8E3E0204600F0E5F8DFE005F08000AD
:101C90000028B3D00020216888622168C8622168CA
:101CA000086505F0020010B905F0200050B1206869
:101CB00000F044FC06462EB1A06B3043A0632046E2
:101CC000FFF788FF012084F834000020206305F02E
:101CD000100010B905F0200010B1204600F0BAF84D
:101CE00005F0010018B905F00200002886D0204652
:101CF00000F14CF8AAE0FFE72068406BC0F38030A9
:101D000030B105F0080018B1204600F065FC9DE0F8
:101D10002068406B00F03A0008B1012000E000208C
:101D2000002870D02068406BC0F3400018B1A06B51
:101D300040F00200A0632068406BC0F3C00018B1FF
:101D4000A06B40F00800A0632068406BC0F3401017
:101D500018B1A06B40F02000A0632068406BC0F376
:101D6000001018B1A06B40F01000A0633848216843
:101D700088632068C06B20F49D702168C863206868
:101D8000C06820F040002168C8602068C06A40F444
:101D900000502168C8622068C06840F08000216857
:101DA000C860206800F0CAFBA16B0843A0632068EC
:101DB000C06820F080002168C8604FF4006021688E
:101DC000886305F0080040B1012084F83400002049
:101DD00020632046FFF7FEFE38E005F0800030B3B8
:101DE000A06B20B32068C06B20F080502168C863CE
:101DF000002021680865012084F834002046FFF7A0
:101E0000E9FE23E0FFE72068406BC0F3007070B18B
:101E10004FF08050216888632068006D00F0040056
:101E200050B905F0200018B12046FFF0AEFF0DE0DC
:101E30002046FFF0A9FF09E005F0200018B1204678
:101E4000FFF7C7FE02E02046FFF7C2FE70BD0000AC
:101E50003A0F001810B50446FEF086F910BD70B5B3
:101E600004462546681EB0F1807F01D301200FE0B3
:101E7000681E4FF0E02148610F214FF0FF3001F163
:101E8000FBFC00204FF0E021886107200861002062
:101E900070BD10B504460CB9012010BD94F83D008A
:101EA00028B9002084F83C002046FFF0AEFF022055
:101EB00084F83D00211D206800F1F4FD012084F824
:101EC000480000BF84F83E0001213F20015540201A
:101ED000015541200155422001554320015500BFC5
:101EE00000BF012084F844004520015546200155DB
:101EF0004720015500BF012084F83D000020CCE7B9
:101F0000704710B504460CB9012010BDA06900B19E
:101F100000E000BFD4F8800028B9002084F87C00DD
:101F2000204600F02AF82420C4F8800020680068C9
:101F300020F0010021680860204600F059FE0128C9
:101F400000D1E2E7A06A10B1204600F1F7FE206858
:101F5000406820F49040216848602068806820F044
:101F60002A00216888602068006840F0010021682C
:101F70000860204600F002FEC7E7704700B587B052
:101F800000BF3E48006840F008003C490860084631
:101F9000006800F00800019000BF00BF00BF0846C5
:101FA000006840F0100008600846006800F010006B
:101FB000019000BF00BF00BF0846006840F040002D
:101FC00008600846006800F04000019000BF00BFB4
:101FD00000BF0846006840F08000086008460068BE
:101FE00000F08000019000BF00BF00BF08460068FD
:101FF00040F4807008600846006800F4807001902A
:1020000000BF00BF00BF1D480C38006840F480507E
:102010001A490C3908600846006800F480500190A5
:1020200000BF00BF02200390012004900320059010
:102030000C2006904CF2B370029002A91048FEF7F3
:102040003DFC4FF68070029002A90E48FEF736FC68
:102050000320029002A90C48FEF730FC4FF47F40A9
:10206000029002A90948FEF729FC40F2CF600290D5
:1020700002A90748FEF722FC07B000BDE044025861
:10208000000C02580010025800180258001C025898
:1020900000200258014604480068084008B10120A9
:1020A00070470020FCE700006001002010B53249B5
:1020B000096801F0004149B12F49096841F0004128
:1020C0002D4A11608169891C816110BD2A49083936
:1020D00009682A4A11622849091F097882F82410E0
:1020E0002549C91E0978916223490C310968D162DA
:1020F0002149891E098811861F49096851631E49B3
:10210000091D096891631C4910310968D1631CA23B
:1021100000210BE0535C254CA36200BF234BDB691D
:1021200003F04003002BF9D04B1CD9B22929F1D37D
:1021300000211F4A116000BF1D4909680029FBD01A
:102140000E4A016811604168516081689160C16800
:10215000D160016911614169516181699161C16910
:10216000D1610021124A116000BF1149096800299C
:10217000FBD000BFA9E700002CED00E0683500208F
:102180000D0A456E74657220486172644661756C13
:10219000745F48616E646C65722C2053797374654A
:1021A0006D2048616C742E0D0A0000000010014083
:1021B0007801002001460B4850F831000069094BB6
:1021C00003EBC1039B88184008B9002200E00122FC
:1021D000044800EBC1008079904201D10120704792
:1021E0000020FCE7644D00081FB5FEF0CDFE012085
:1021F0008DF800004FF01050019012208DF808006B
:1022000003208DF80B0000208DF80F008DF80E00D4
:102210008DF80D008DF8010001208DF80A000020D6
:102220008DF809008DF80C006846FEF75DFC012072
:102230008DF800004FF0C04001900F208DF808008D
:1022400003208DF80B0001208DF80F0000208DF881
:102250000E008DF80D0001208DF8010000208DF892
:102260000A008DF809008DF80C006846FEF73CFC6A
:1022700001208DF80000104801900D208DF8080015
:1022800003208DF80B0000208DF80F008DF80E0054
:102290008DF80D0002208DF8010001208DF80A0054
:1022A00000208DF809008DF80C006846FEF71CFC34
:1022B0000420FEF747FC1FBD00AC004000BFFEE756
:1022C00002467F2341F207008354107A41F207034C
:1022D0001344587041F2070010448170032342F206
:1022E000080083520846704770472DE9F0410446C4
:1022F0000D462946204601F0C9FF0646782E06D134
:10230000012142F236000155401C015503E0002135
:1023100042F23600015542F20800005B58B142F229
:1023200008010A5B20682B4641F2070121444768F7
:10233000B847804600BFBDE8F08100002DE9F041BC
:1023400004460E4600275548006800F003000328A5
:1023500002D10120BDE8F08150482838006820F003
:1023600080504E4928390860FEF7ACFB054606E070
:10237000FEF7A8FB401B022801D90320EAE74748E3
:1023800028380068C0F340700028F1D100BF4348EE
:10239000006820F07C70218840EA01503F490860C5
:1023A000A088401EC0F30800A168491E4FF47E4279
:1023B00002EA41210843A189491ED20102EA0141F2
:1023C0000843217C491E120202EA01610843334995
:1023D0001831086000BF3148001D006820F44060DB
:1023E000616908432D49091D08600846006820F40A
:1023F0000070A16908432949091D08600846006862
:1024000020F48070086025481C3000684FF6F87191
:102410008843E16940EAC10020491C3108601F4837
:10242000001D006840F480701C49091D08602EB929
:102430000846006840F48000086012E0012E08D1D0
:102440001648001D006840F400001449091D08608A
:1024500007E01248001D006840F080700F49091D18
:1024600008600E482838006840F080500B49283931
:102470000860FEF727FB054606E0FEF723FB401B3E
:10248000022801D9032065E7044828380068C0F312
:1024900040700028F1D038465CE70000284402581C
:1024A00070B505460C46A08882B22846A36821680C
:1024B0009847002070BD000070B505460C46208886
:1024C000012806D008280AD0A0F57140903890B9AC
:1024D0000BE00122094928466368984770BD96229F
:1024E0000749284663689847F8E796220549284631
:1024F00063689847F2E73120F0E700000C00002005
:1025000012000020A8000020042001490860704744
:10251000180402584FF480200149086070470000F9
:1025200018040258012242F225010A540022C91D52
:102530000A50091F0A50091F0A54704730B585B068
:102540000446002000900C2001904FF4807002900F
:10255000002003904FF480500490E06840F0800029
:10256000E060E06820F04000E0606946204600F04E
:102570001DF8084A0C21204600F122F90546E068C2
:1025800020F08000E060B5F1007F00D100252846F2
:1025900005B030BD00E1F505024602F11400431814
:1025A000186870470146D1F88000704710B50246A0
:1025B000002308689060D1E901042043CC682043DF
:1025C0000C6920430343D068024C20401843D0607C
:1025D000002010BDC0E0FEFFF8B505462C6A686A11
:1025E000202821D3002619E020780090641C207850
:1025F000009941EA00200090641C2078009941EA8B
:1026000000400090641C2078009941EA006000902E
:10261000641C6946286800F1AFF9761C082EE3D3E4
:102620002C62686A20386862F8BD000070B58CB012
:1026300004460D461646282102A8FDF7A1FE0020FB
:10264000009001901948007801282CD100BF80F338
:10265000108800BF00201549087000BF80F3108863
:1026600000BF6B4602AA40211148FDF009FF00227D
:1026700002210F48FEF776F80298A84208D1059883
:10268000C0F30742694604F10C0001F0E9FF0AE0DB
:102690000298B04207D10598C0F30742694604F199
:1026A000540001F0DDFF0CB070BD00008E01002071
:1026B0007822002010B51B48006840B11948006816
:1026C000401E1849086010B90120174908700024FD
:1026D00008E004EB4401154A02EB810001F1FEFE23
:1026E000601CC4B2042CF4DB11480068401C104983
:1026F0000860084600686FF00041884202D100205F
:102700000B49086001F1E0FD0A480078401CC0B2A6
:10271000084908700A2803DB0020087001F0D8FC83
:1027200010BD000050010020540100205024002062
:10273000580100205D01002010B59CB0202114A894
:10274000FDF71EFE4C2101A8FDF71AFE0024554896
:10275000006820F004005349086000BF002000908A
:102760005148006820F001004F49086008460068A1
:1027700000F0010000904B480C30006840F44040ED
:1027800048490C3108600846006800F44040009059
:1027900000BF00BF00BF43480C30006800F4005089
:1027A000B0F5005FF7D101200190000402900020F5
:1027B0000490089002200A9002210B9105210C91AF
:1027C000A0210D9102210E91109104210F91002161
:1027D00012910821119101A8FEF710FE04461CB1C8
:1027E000902132A0FDF797FE3F2014900320159012
:1027F0000020169008201790402018901990000192
:102800001A9040201B90042114A8FEF719FB0446DF
:102810001CB1AB2125A0FDF77EFE2A48006840F0E0
:1028200080002849086000BF2648F430006840F066
:1028300002002449F43108600846006800F00200F4
:10284000009000BF00BFFDF0ADFD00BF1D48DC30B3
:10285000006840F000501B49DC3108600846006801
:1028600000F00050009000BF00BF00BF08460068A5
:1028700040F0804008600846006800F0804000900A
:1028800000BF00BF00BF0846006840F0004008607D
:102890000846006800F00040009000BF00BF1CB078
:1028A00010BD00000C4802582C0400582E2E5C2E3F
:1028B0002E5C557365725C6273705C6273702E631C
:1028C00000000000004402583648006840F47000E0
:1028D000344908603448006800F00F00072806D229
:1028E0003148006820F00F00C01D2F4908602F48B4
:1028F000006840F001002D49086000202B4910318C
:1029000008602A4800682A49084028490860264883
:10291000006800F00F00072806D92348006820F05F
:102920000F00C01D204908600020204918310860B0
:10293000091D0860091D08601E481C4928310860EF
:102940001D48091D08601D48091D08600020091D5B
:1029500008601A48091D08600020091D0860174812
:10296000091D08600020091D08601048006820F457
:1029700080200E49086000200C4960310860104832
:1029800000686FF30F00B0F1005F02D201200D4923
:10299000086043F2D2000C490860480301498039BD
:1029A0000860704788ED00E00020005200440258A3
:1029B0007FEDF6EA000202020000FF018002010141
:1029C0000010005C088100510040005230B501F059
:1029D0001F05012404FA05F3046A9C430462046A97
:1029E00001F01F0502FA05F52C43046230BD00001A
:1029F00030B5056A25F480750562026A4368C469CA
:102A000024F0700424F003040D682C4322F40072B7
:102A10008D6842EA05221D4DA84200D10FE01C4DF1
:102A2000A84200D10BE01B4DA84200D100BF1A4DB7
:102A3000A84200D100BF194DA84207D106E022F4F8
:102A40000062CD6842EA052222F480620F4DA8425E
:102A50000BD00F4DA84208D00E4DA84205D00E4D08
:102A6000A84202D00D4DA84209D123F4805323F48B
:102A700000534D6943EA05138D6943EA051343602A
:102A8000C4614D68C563026230BD000000000140B2
:102A90000004014000400140004401400048014062
:102AA00030B5056A25F480550562036A4468C26939
:102AB00022F4E04222F440720D6842EA052223F437
:102AC00000538D6843EA05330C4DA8420BD00C4DE2
:102AD000A84208D00B4DA84205D00B4DA84202D009
:102AE0000A4DA84204D124F480444D6944EA851477
:102AF0004460C2614D680564036230BD000001405E
:102B000000040140004001400044014000480140F1
:102B100030B5056A25F480350562046A4268436D64
:102B200023F070030D682B4324F400340D8944EA2C
:102B300005440D4DA8420BD00C4DA84208D00C4DB9
:102B4000A84205D00B4DA84202D00B4DA84204D19B
:102B500022F480324D6942EA0522426043654D68A5
:102B60008565046230BD00000000014000040140A2
:102B700000400140004401400048014038B504468F
:102B80000020C4F88800FDF79DFF05462068006816
:102B900000F0080008280CD16FF07E402B46002280
:102BA0004FF400110090204600F0F0FA08B1032025
:102BB00038BD2068006800F0040004280CD16FF0D4
:102BC0007E402B4600224FF480010090204600F00A
:102BD000DDFA08B10320EBE72020C4F88000C4F838
:102BE000840000BF002084F87C0000BF00BFDFE746
:102BF0002DE9F04F8BB0054600200890F949286870
:102C0000884200D100E000BF2969A86808436969CB
:102C10000843E96940EA0108686E40EA0808286844
:102C20000068F149084040EA0800296808602868FF
:102C3000406820F44050E968084329684860D5F8A6
:102C40001880E8492868884202D0286A40EA0808C3
:102C500028688068E549084040EA080029688860DB
:102C60002868C06A20F00F00696A08432968C862B2
:102C700000BFDF492868884220D1DE48006800F0A4
:102C80003800182811D005DC48B1082809D01028D0
:102C900011D108E020280AD028280CD109E001240D
:102CA0000BE0042409E0082407E0102405E02024B8
:102CB00003E0402401E0802400BFF8E0CE4928680A
:102CC000884219D1CB48006800F00700062810D2CE
:102CD000DFE800F0030507090B0D00240BE00424D6
:102CE00009E0082407E0102405E0202403E0402444
:102CF00001E0802400BFDAE0C0492868884219D189
:102D0000BC48006800F00700062810D2DFE800F099
:102D1000030507090B0D00240BE0042409E0082437
:102D200007E0102405E0202403E0402401E0802493
:102D300000BFBCE0B2492868884219D1AD4800689C
:102D400000F00700062810D2DFE800F003050709AD
:102D50000B0D00240BE0042409E0082407E01024F4
:102D600005E0202403E0402401E0802400BF9EE031
:102D7000A4492868884219D19E48006800F00700DD
:102D8000062810D2DFE800F0030507090B0D002428
:102D90000BE0042409E0082407E0102405E02024C7
:102DA00003E0402401E0802400BF80E096492868C9
:102DB000884220D18F48006800F03800182811D0D0
:102DC00005DC48B1082809D0102811D108E02028D6
:102DD0000AD028280CD109E001240BE0042409E0E2
:102DE000082407E0102405E0202403E0402401E04B
:102DF000802400BF5BE085492868884219D17D485E
:102E0000006800F00700062810D2DFE800F0030594
:102E100007090B0D00240BE0042409E0082407E057
:102E2000102405E0202403E0402401E0802400BFBA
:102E30003DE077492868884219D16E48006800F063
:102E40000700062810D2DFE800F0030507090B0D84
:102E500000240BE0042409E0082407E0102405E026
:102E6000202403E0402401E0802400BF1FE05D49EE
:102E7000286888421AD15F48001D006800F00700EA
:102E8000062810D2DFE800F0030507090B0D022425
:102E90000BE0042409E0082407E0102405E02024C6
:102EA00003E0402401E0802400BF00E0802400BF54
:102EB0004C49286888427DD1102C1AD006DC022C9F
:102EC00009D0042C0BD0082C29D10DE0202C21D0C6
:102ED000402C24D120E0FEF07BF8064623E005A834
:102EE000FDF796FE069E1EE002A8FEF083F8039E04
:102EF00019E0404854380068C0F3401040B13D48E4
:102F000054380068C0F3C101424820FA01F600E0DD
:102F1000404E08E0404E06E04FF4004603E0002635
:102F20000120089000BF00BF002E10D03B49686A06
:102F300031F81000B6FBF0F9686800EB4000484536
:102F400003D868680003484502D20120089009E1CF
:102F50003249686A31F810C062460023304619468B
:102F6000FDF7B6F94FF480730022A0FB03AC01FB20
:102F700003C100FB021B02220023D5F804C06046F7
:102F80001946FDF7A5F91AEB00004BF1000BCDE94E
:102F9000000BD5F804C0624600235946FDF798F9A6
:102FA0000746B7F5407F06D3B7F5801F03D22868E0
:102FB000C760D7E002E001200890D3E0E869B0F5EF
:102FC000004F7DD1082C39D005DC4CB3012C2CD01E
:102FD000042C4CD12DE0102C35D0202C42D0402C8C
:102FE00045D141E0000C0058F369FFCFFFF4FF1119
:102FF0000010014054440258004400400048004082
:10300000004C004000500040001401400078004097
:10301000007C00400090D00300093D00FC4D1008EA
:10302000FFE7FEF09FFE064625E0FEF7BFF80646E6
:1030300021E005A8FDF7ECFD069E1CE002A8FDF0CE
:10304000D9FF039E17E04D480068C0F3401038B127
:103050004A480068C0F3C101494820FA01F600E07F
:10306000474E08E0474E06E04FF4004603E00026D6
:103070000120089000BF00BF0EB34349686A31F8D1
:103080001000B6FBF0F04000696800EB5100B0FBA7
:10309000F1F087B2102F10D3B7F5803F0DD24FF665
:1030A000F07038400990C7F342010998084309902D
:1030B00009982968C86055E002E00120089051E0B5
:1030C000082C1AD005DC5CB1012C0DD0042C2DD1BC
:1030D0000EE0102C16D0202C23D0402C26D122E03C
:1030E000FEF040FE064625E0FEF760F8064621E0C9
:1030F00005A8FDF78DFD069E1CE002A8FDF07AFFF5
:10310000039E17E01D480068C0F3401038B11B480B
:103110000068C0F3C1011A4820FA01F600E0184E19
:1031200008E0184E06E04FF4004603E000260120B8
:10313000089000BF00BFAEB11349686A31F81000B3
:10314000B6FBF0F0696800EB5100B0FBF1F087B21C
:10315000102F05D3B7F5803F02D22868C76001E081
:10316000012008900120A5F86A00A5F86800002059
:10317000E866286708980BB0BDE8F08F0044025855
:103180000090D00300093D00FC4D10082DE9F041EE
:1031900004460D4617469846069E4AE0701C0028D5
:1031A00047D0FDF78FFCA0EB0800B04200D8C6B9AD
:1031B0002068006820F4D07021680860206880686A
:1031C00020F00100216888602020C4F88000C4F845
:1031D000840000BF002084F87C0000BF0320BDE80D
:1031E000F0812068006800F0040010B32068C06916
:1031F000C0F3C020E8B14FF4006021680862206885
:10320000006820F4D070216808602068806820F091
:103210000100216888602020C4F88000C4F8840080
:10322000C4F8880000BF002084F87C0000BF0320A1
:10323000D5E72068C0692840A84201D1012000E0FC
:103240000020B842AAD00020C9E700000148006869
:103250007047000058010020014601F03F0129B1EC
:10326000432901DB5E2901DA7F2901D10120704762
:103270000020FCE72DE9F05F0446894616469A4691
:10328000DDF828B042F21700005D10B10B20BDE858
:10329000F09F204600F038FF370906F00F08342170
:1032A00041F20F000155204480F8019041F20F00D7
:1032B0002044867041F20F002044C51CA8F1010093
:1032C00009E0C200FF21914001EA0A01C200D14099
:1032D00029706D1C401E0028F3DA781E09E0C20038
:1032E000FF21914001EA0B01C200D14029706D1C01
:1032F000401E0028F3DA08F10300C11942F214005D
:103300000153204600F07CFBC1E72DE9F041044663
:103310000D461646984642F21700005D10B10B208C
:10332000BDE8F081204600F0EFFE362141F20F00AB
:10333000015520444570B21E4346012141F20F0061
:103340002044801C01F193F987B2B81C81B242F28B
:1033500014000153204600F053FBE1E77CB504461E
:103360000E4642F2E4012046FDF70AF840F6FF71EE
:1033700042F20A000153801C01530121801C0153B9
:103380004FF4FA61801C015140F6B831001D015321
:1033900030686060012142F234000155FFF756FFAA
:1033A00042F20E01095B411A42F21C000151FFF783
:1033B0004DFF42F21401095B014442F22000015129
:1033C00042F23800251842F20A00005B04F10801BD
:1033D000CDE9001042F20C00035B41F20700221815
:1033E00005F10C00716801F117FA082105F19C0044
:1033F000CDE90001082305F1A4024838716801F104
:103400000BFA2560054821688860054821684860F6
:1034100004482168086000207CBD0000C74B1008EC
:10342000EF4B1008D14C000810B5024800F029F805
:1034300010BD00003C2D002070B504460D46012053
:1034400000F131FA668B002000F12DFA0EB9002050
:1034500070BD218BA068405C2870012000F123FA28
:10346000208B401C80B22083E189884201DB002050
:103470002083608B401E6083002000F114FA01203D
:10348000E6E72DE9F04104462068C5692068066832
:103490002068D0F8088005F02000D8B12068406A84
:1034A000C7B2E18AA0684754E08A401C80B2E0823B
:1034B000E189884201DB0020E082608BE18988425B
:1034C00002DA608B401C6083606A10B13846616A22
:1034D000884700BF05F0800028B306F0800010B3D5
:1034E000A08A60B92068006820F080002168086028
:1034F0002068006840F040002168086013E0012067
:1035000084F82800618A6068405C21688862608A6B
:10351000401C80B26082A189884201DB0020608269
:10352000A08A401EA08205F0400018B306F04000BB
:1035300000B3A08A68B92068006820F040002168C4
:103540000860206A08B1206A8047002084F82800BB
:1035500010E0618A6068405C21688862608A401C73
:1035600080B26082A189884201DB00206082A08A4B
:10357000401EA0822068006A40F0010021680862B5
:103580002068006A40F00200216808622068006A32
:1035900040F00400216808622068006A40F00800DA
:1035A000216808622068006A40F010002168086203
:1035B0002068006A40F04000216808622068006AC4
:1035C00040F48070216808622068006A40F400704E
:1035D000216808622068006A40F4003021680862AF
:1035E0002068006A40F48010216808622068006A40
:1035F00040F0200021680862BDE8F08119481A49AE
:1036000008601A4848601A4888604FF480608881D2
:10361000C881002008824882C88208834883888243
:10362000C8610862486281F828001248124908609F
:1036300012484860124888604FF480608881C881D1
:10364000002008824882C8820883488388820D4807
:10365000C8610D4808620D484862002081F82800C2
:103660007047000000100140102500203C2500207C
:103670003C290020004800403C2D0020682D0020FF
:10368000683100200925000815250008AD2710081D
:10369000F8B50446607A00F07F06A77A42F2060089
:1036A000005B032804D213212046FEF709FEF8BD73
:1036B0008DF800608DF801706A4604212046636829
:1036C0009847054625B129462046FEF7F9FDEEE765
:1036D000682141F20700015520444670022142F260
:1036E000080001530020E2E7FEB50446002700254C
:1036F000002642F20600005B042804D21321204673
:10370000FEF7DEFDFEBDA17A607A01EB002085B2F6
:1037100042F20600005BC01E87B2ADF8005004F113
:103720000B000190ADF808706A46072120466368D7
:103730009847064626B131462046FEF7C1FDE1E72F
:103740006E2141F207000155281241F20701214480
:10375000487041F2070121448D70032142F20800B4
:1037600001530020CEE70000FEB50446002542F2DA
:103770000600005B801E86B2002742F22400005D36
:1037800020B970212046FEF79BFDFEBD42F20600E7
:10379000005B022801D2132556E0677A42F2360018
:1037A000005D70B942F22500005DB84201D02425C9
:1037B0004AE042F22500005D401CC1B242F2250001
:1037C000015542F22C000059811942F2280000599B
:1037D000814201D9712537E01F4A07CA8DE80700E9
:1037E00004F10A00009042F20600005B801E80B2E5
:1037F000ADF8040042F23000005B801E80B2ADF8EC
:103800000600762141F2070001552044477002214D
:1038100042F2080001536A460B212046636898472C
:10382000054615B1782D0ED108E042F22C00005962
:10383000811942F22C0001510020A6E77821204690
:10384000FEF73EFDA1E700BF2046FEF76BFE2946CE
:103850002046FEF735FD98E7604E000870B5044637
:1038600042F20600005B022804D342F20600005B2D
:10387000022804D913212046FEF722FD70BD657A87
:1038800015B1802D19D100E000BFFFF7DFFC42F237
:103890001401095B014442F2200001517E2141F2F2
:1038A00007000155002041F2070121444870022120
:1038B00042F2080001530020E0E712212046FEF703
:1038C000FFFCDBE72DE9F0410446207C7F2818D17E
:1038D000A07C782845D1FFF7B9FC61680844E06016
:1038E00042F20E00015B04F11000FCF749FD0021DB
:1038F00042F2120001530321204600F001FCBDE812
:10390000F081277CA7F14000102827D142F2120055
:10391000005B062808D2082142F21600015500215A
:10392000204600F0EDFBEAE742F21A00005D00F0ED
:10393000080020B10021204600F0E2FBDFE7E17C37
:10394000A07C01EB002085B2617D207D01EB002091
:1039500000EB800046002580666000E000BF00BFED
:1039600000BF0021204600F0CBFB00BFC7E70146A7
:1039700042F21200405A012801DA08207047087C00
:103980007F281BD142F21200405A022801DA082097
:10399000F4E741F20F00425C487C824201D00420EF
:1039A000ECE7887C782801D10020E7E742F21A0092
:1039B000405C00F0040008B30220DFE741F20F0092
:1039C000405C40300A7C904201D00420D6E741F2AE
:1039D0000F00405C112810D142F21200405A022818
:1039E00001DA0820CAE741F20F0008444278487C17
:1039F000824201D00520C1E700BF00BF0020BDE723
:103A000010B5044642F21800015D801C0155005DAE
:103A100000F0010048B141F20F002044407840F02E
:103A2000800041F20F01214448700121204600F03E
:103A300067FB2046FEF038FD002010BD0FB4054B9B
:103A400010B503A9044A0298FFF030FF10BC5DF8DE
:103A500014FB00005D461008900100200FB4084BD5
:103A600010B504A902AA0398FFF020FF044602A99A
:103A7000002000F135F9204610BC5DF814FB000071
:103A8000E13C100802E008C8121F08C1002AFAD160
:103A900070477047002001E001C1121F002AFBD1CE
:103AA00070472DE9F041044600251E469046C803A4
:103AB00001D5302700E02027880404D505E04146E1
:103AC0003846B0476D1C641EF9D52846BDE8F08124
:103AD00070B504460120FFF0E3FE074806680020A9
:103AE000FFF0DEFEA64201DB351B03E06FF0004075
:103AF000001B8519284670BD5801002070B586B09E
:103B000006460C461546304600F00CFA284600F1F1
:103B1000A5FA022002900120039003200490284679
:103B200000F02AF80590019401A93046FCF7C6FE82
:103B300006B070BD10B5044604B910BD012C00D10B
:103B400002240120FFF0ACFE09480460002009496E
:103B50000870FFF0A5FE06E000F08AF8054800783E
:103B6000012800D100E0F7E700BF00BFE5E7000053
:103B7000500100205401002070B504460025214862
:103B8000844201D101253AE0B4F1804F01D10125F1
:103B900035E01D48844201D1022530E01B488442B3
:103BA00001D102252BE01A48844201D1022526E0EA
:103BB0001848844201D1032521E01748844201D1ED
:103BC00002251CE01548844201D1092517E014485C
:103BD000844201D1092512E01248844201D1042512
:103BE0000DE01148844201D1012508E00F488442CC
:103BF00001D1012503E0C3210DA0FCF78CFC284670
:103C000070BD0000000001400004004000080040BA
:103C1000000C00400004014000180040001C00405F
:103C200000200040004001400044014000480140A5
:103C30002E2E5C2E2E5C557365725C6273705C7305
:103C400072635C6273705F74696D5F70776D2E6311
:103C50000000000010B50120FFF022FE03480468B8
:103C60000020FFF01DFE204610BD0000580100207E
:103C70007047000008B5284828490860002088607F
:103C800000212648C16001210174002141740121F5
:103C9000817402214161082181611F21C1610821D4
:103CA000016201214162042181620521C162042176
:103CB00001634FF4A061416304218163C16340212A
:103CC000016404214164032181640421C16402214F
:103CD00001650421416510218165C16501660021EE
:103CE000416604218166FCF0BDFE002003460246C9
:103CF000014600900948FCF0A7FB01221146074845
:103D0000FCF785FD002202210448FCF72BFD034847
:103D1000FCF7B5FD08BD000000A40040782200209B
:103D2000F0B595B04C2102A8FCF72AFB4FF0804477
:103D300000BF2948006840F0010027490860084694
:103D4000006800F00100019000BF00BF23488442DA
:103D50000BD02348844208D02248844205D0224810
:103D6000844202D02148844203D121480068460899
:103D700002E01F48006846081E48B6FBF0F0401EEF
:103D800087B2B4F1804F02D01B48844202D14FF079
:103D9000FF3501E04FF6FF7502940397059500216A
:103DA0000691049107918021089102A8FEF771F80D
:103DB00020B14FF40C7111A0FCF7ADFB02220021E1
:103DC0001C20FCF7D4FE1C20FDF0EEF802A8FEF04B
:103DD0001DF815B0F0BD0000E84402580000014095
:103DE00000040140004001400044014000480140FF
:103DF0007001002040420F00000C00402E2E5C2E6F
:103E00002E5C557365725C6273705C7372635C6286
:103E100073705F74696D65722E63000010B500F1F8
:103E200039F800F001F810BD10B586B000BF2C487D
:103E3000006840F002002A4908600846006800F067
:103E40000200009000BF00BF00BF0846006840F0BD
:103E5000040008600846006800F00400009000BFFD
:103E600000BF00BF0846006840F0400008600846F8
:103E7000006800F04000009000BF00BF00BF08468F
:103E8000006840F0800008600846006800F080008C
:103E9000009000BF00BF00BF0846006840F480707B
:103EA00008600846006800F48070009000BF00BF02
:103EB0000020029003900320049000240CE00948A5
:103EC00000EBC40080880190064951F8340001A934
:103ED000FCF7F4FC601CC4B2082CF0DB06B010BD8B
:103EE000E0440258644D000810B5012000F175F857
:103EF000022000F172F8032000F16FF8042000F1B5
:103F00006CF810BD0649C97A054A50541146C97A61
:103F1000491CC9B2D1720A2901DB0021D172704754
:103F20004024002008B55E4988420DD100BF5D499C
:103F3000096841F001015B4A11601146096801F00E
:103F40000101009100BFA9E0574988420DD100BF8F
:103F50005449096841F00201524A1160114609684A
:103F600001F00201009100BF98E0504988420DD154
:103F700000BF4C49096841F004014A4A11601146EA
:103F8000096801F00401009100BF87E048498842B8
:103F90000DD100BF4349096841F00801414A116051
:103FA0001146096801F00801009100BF76E041491F
:103FB00088420DD100BF3B49096841F01001394AE0
:103FC00011601146096801F01001009100BF65E021
:103FD000394988420DD100BF3249096841F02001BA
:103FE000304A11601146096801F02001009100BFBC
:103FF00054E0324988420DD100BF2A49096841F096
:104000004001284A11601146096801F04001009101
:1040100000BF43E02A4988420DD100BF2149096809
:1040200041F080011F4A11601146096801F08001CA
:10403000009100BF32E0234988420DD100BF1949E9
:10404000096841F48071174A11601146096801F44A
:104050008071009100BF21E01B4988420DD100BF53
:104060001049096841F400710E4A1160114609684F
:1040700001F40071009100BF10E0144988420DD195
:1040800000BF0849096841F48061064A1160114681
:10409000096801F48061009100BF00BF08BD000005
:1040A00000000258E0440258000402580008025878
:1040B000000C025800100258001402580018025850
:1040C000001C025800200258002402580028025800
:1040D00010B5FBF0DFFFFFF075FF10BD10B5074B0B
:1040E00003EB00131981054B03EB0013DA72002375
:1040F000024C04EB0014237310BD0000A023002029
:1041000042F217021154704710B5044642F20E00F5
:10411000015B04F11000FCF733F942F21000015B7F
:1041200041F20F002044FCF72BF9002142F212006B
:104130000153801C0153C01C0155401E015510BD88
:1041400070B505460E462846FCF7A6F904460CB99C
:10415000002070BD31462046FFF76EF9F9E72DE9E2
:10416000F04105460E4617462846FCF795F90446E9
:104170000CB9BDE8F081E06908B1E06980473A46D2
:1041800031462046FEF06AFF00BFF2E713B5044651
:10419000012201A92046FFF7E2FF1CBD2DE9FF4FD8
:1041A00087B081460D469A46002004900021099868
:1041B00001600020CAF8000042F2060030F8090051
:1041C000032806DA13214846FEF77AF80BB0BDE85B
:1041D000F08F28780609287800F00F040EB1042E1D
:1041E00004D931214846FEF76BF8EFE70CB1042CF7
:1041F00004D931214846FEF763F8E7E7A819011909
:1042000042F2060030F8092009F10800104481420A
:1042100004D913214846FEF753F8D7E74FF0000BB7
:1042200018E00BF101002F5C4FF00008CDE9027897
:10423000601EA0EB0B00C0B201900198C200DDE946
:10424000027838464146FBF0DBFE049908430490AF
:104250000BF1010BA345E4DB0999049808600020E9
:1042600010E0631C0344E95C731E1B1ADAB24FEAC8
:10427000C20C01FA0CFCDAF8003043EA0C03CAF86D
:104280000030401CB042ECDB00209FE72DE9F047F6
:1042900005460F460024A14695F80880404600F1E7
:1042A00001FA06460EB1686828B911212846FEF7C2
:1042B00007F8BDE8F087B8F12F0F6AD022DCB8F11B
:1042C000240F63D014DCB8F1190F5ED009DCB8F10B
:1042D000100F37D0B8F1110F35D0B8F1140F52D1FB
:1042E00052E0B8F1220F44D0B8F1230F4BD141E096
:1042F000A8F12700082846D2DFE800F02627454924
:10430000454A453DB8F13D0F45D009DCA8F13100E3
:10431000082838D2DFE800F01A3737303132333E20
:10432000B8F1840F39D006DCB8F13E0F0FD0B8F1E8
:10433000830F28D130E0B8F1850F09D0B8F1860F8E
:1043400021D12BE000BF00BF00BF00BF00BF00BFF6
:104350002846B0470446687A4FEAD01ABAF1000FEF
:1043600004D01CB900BF4FF0010901E04FF0000973
:1043700016E000BF00BF00BF00BF00BF00BF28465F
:10438000B04704460CE000BF00BF00BF00BF00BF45
:1043900000BF00BF00BF00BF00BF00BF112400BFAF
:1043A00000BF012F13D1112C07D0122C05D07F2C68
:1043B00003D07E2C01D0312C09D100BF4FF0010970
:1043C00000BF002142F20800415300BF09E0B9F1EB
:1043D000000F06D000BF002142F20800415300BF89
:1043E00000BF204665E700002DE9FC4107460D4669
:1043F00014460F2D73D2DFE805F00822353A603FEE
:104400004A626775B6859FA4AF00214608780128E7
:1044100006D0022807D0032806D004280DD100BFFB
:104420000020BDE8FC8100BF42F23500C05D0028DD
:1044300001DD0020F5E73320F3E71220F1E72646FF
:1044400031784DA0FFF7FAFA3078012804D003281C
:1044500003D0042804D101E000BF00BF0020E0E742
:104460001220DEE721463846FEF726F8D9E7214636
:104470003846FEF715F8D4E748A103C9CDE9000195
:104480002646082269463846F3689847C9E743A19B
:1044900003C9CDE90001264632896946706800F1FA
:1044A00037FC8046B8F1000F01D13520B9E73D490E
:1044B000706800F18DF80020B3E70020B1E72146D5
:1044C0003846FEF017FEACE72146488841F2342218
:1044D000904205D10120344A10700020A1E742E04B
:1044E00031209EE731A0FFF7A9FA26463749306808
:1044F0000860C82135480068FBF742FF00203449B6
:1045000008608EE72646B288304B31681B68DFF8BA
:10451000C0C0DCF800C003EB0C00FBF70AFFB0885A
:104520002B49096808442A4908600846016829A0FF
:10453000FFF784FA002074E72EA0FFF77FFA00202F
:104540006FE735A0FFF77AFA3846FEF099FC394953
:104550003846FEF703FF0CE037A0FFF76FFA20782C
:1045600000F034FB05E0294637A0FFF767FA112079
:1045700057E700BF722054E7676F742045435552D8
:10458000657365742072657175657374206F66203C
:10459000747970652025780A0000000011223344E8
:1045A00055667788A8000020000000205544535F1E
:1045B0005352565F4556545F526571756573744426
:1045C0006F776E6C6F61640D0A00000008000020B8
:1045D000040000205544535F5352565F4556545FC4
:1045E0005472616E7366657244617461203D20256A
:1045F000640D0A005544535F5352565F4556545F4D
:10460000526571756573745472616E736665724537
:104610007869740D0A000000736572766572207304
:10462000657373696F6E2074696D6564206F75744E
:10463000210A0000EC4D1008706F776572696E6793
:1046400020646F776E210A00556E68616E646C6538
:1046500064206576656E743A2025640A00000000C7
:104660002DE9FC41044688461646022E01DB082E41
:1046700001DDBDE8FC81324641466846FBF759FE44
:10468000C6F108010DEB0600FBF77AFE9DF800006D
:1046900000F00F0030B1012818D0022848D00328BC
:1046A0007ED17EE094F84400012802D1C01F20642E
:1046B00001E00020206432466946204600F05CF9A3
:1046C000054615B9022084F84400B8E094F8440087
:1046D000012802D1C01F206401E00020206432467E
:1046E0006946204600F0CEF8054615F1030F0CD1BF
:1046F0006FF007002064002084F8440000231A466D
:104700000221204600F186F999E085B901203B3469
:1047100060720820207014F83B29002319462046B7
:1047200000F178F900F04BFA46490844E06386E06E
:1047300094F84400012803D06FF0050020647EE067
:1047400032466946204600F1D5F8054615F1040FBA
:1047500006D16FF003002064002084F844006EE06E
:10476000EDB900F02CFA37490844E063208FE18E60
:10477000884203DB022084F8440010E094F83B00F8
:10478000401EC0B284F83B0048B9082084F83B00C2
:1047900094F83B2000231946204600F13BF94EE0F7
:1047A0004CE094F82800012800D048E032466946E1
:1047B000204600F1E5F805461DBB00F000FA21494E
:1047C000084420629DF800000221B1EB101F06D1C1
:1047D0006FF007006062022084F828002DE09DF849
:1047E00000000121B1EB101F0CD1207E401C20766F
:1047F000207E012821DD6FF006006062022084F82F
:1048000028001AE09DF800000009B0B99DF80100E9
:1048100018B94FF6FF70208202E09DF80100208257
:104820009DF8020000F145F907460FB1384600E057
:10483000002060610020207600BF00E000BF00BFC4
:1048400000BF16E7A08601002DE9F04104460F469F
:104850001646984694F84400022803D06FF00400EE
:10486000BDE8F081E58EB54200DD35462A46384682
:10487000216BFBF75EFDA8F80050002084F844008F
:1048800000BFEDE72DE9F04104460D461746082F1D
:1048900006D015A000F092F96FF00600BDE8F08197
:1048A00028780609687800EB0626072E05DC19A093
:1048B00000F084F96FF00600F0E7A08EB04205DA50
:1048C0001FA000F07BF96FF00200E7E7206BD5F83E
:1048D00002100160E9888180E68606202087012099
:1048E00084F83A000020D9E7466972737420667232
:1048F000616D652073686F756C6420626520382077
:10490000627974657320696E206C656E6774682EB9
:104910000000000053686F756C64206E6F74207522
:104920007365206D756C7469706C65206672616D5D
:1049300065207472616E736D697373696F6E2E009A
:104940004D756C74692D6672616D6520726573704A
:104950006F6E736520746F6F206C6172676520667F
:104960006F7220726563656976696E67206275662D
:104970006665722E0000000070B505460C461646AE
:104980002078000920B1701E2178B0EB111F05DAE4
:1049900008A000F013F96FF0060070BD21780A0935
:1049A000611C286BFBF7C5FC20780009E886002015
:1049B000F3E7000053696E676C652D6672616D6583
:1049C000206C656E67746820746F6F20736D616C06
:1049D0006C2E000070B504460D46164633462A4636
:1049E0002046216800F03CF870BD7CB504469DF877
:1049F000000020F00F00801C8DF80000A17B9DF8C6
:104A0000000061F307108DF800006089A189401A49
:104A100085B2072D00D90725A289606881182A462A
:104A20000DF10100FBF785FCC5F107010DF1010255
:104A30005019FBF7A5FC08226946206800F14CF8E4
:104A4000064656B9A0892844A081A07B401CC0B26C
:104A5000A0730F2801DD0020A07330467CBD00004C
:104A60002DE9F041A0B00446884617461D463CB9E2
:104A700026A000F0A3F84FF0FF3020B0BDE8F08191
:104A80002089A8420EDA254800F098F823892A46A2
:104A900023A16846FEF7E2FF684600F08FF86FF04A
:104AA0000200EAE794F82800012805D128A000F0C8
:104AB00085F86FF00100E0E765810020A0812A46BB
:104AC00039466068FBF735FC6089082805DA4146FD
:104AD0002046FFF0C7FF064616E041462046FFF09D
:104AE0006DFF064686B9002020826061207600F0C6
:104AF00066F8E06100F063F8224908442062002073
:104B00006062012084F828003046B6E74C696E6B7D
:104B1000206973206E756C6C21000000704E1008C7
:104B2000417474656D7074656420746F2073656E74
:104B3000642025642062797465733B206D61782060
:104B400073697A65206973202564210A00000000DA
:104B500041626F72742070726576696F7573206D33
:104B60006573736167652C207472616E736D697310
:104B700073696F6E20696E2070726F6772657373F0
:104B80002E0A0000A086010001460B48814205D88C
:104B90004FF47A70B1FBF0F0C0B27047642908D3CB
:104BA000B1F5617F05D86420B1FBF0F0F030C0B200
:104BB000F3E70020F1E7000018F00100704710B59E
:104BC000FEF744FB4FF47A71484310BD10B504461C
:104BD00021461CA0FEF732FF012C04D0032C14D078
:104BE000042C28D11CE000BFBFF34F8F1C48006885
:104BF00000F4E0601B490843001D19490860BFF339
:104C00004F8F00BF00BF00BFFDE717A0FEF716FFE4
:104C10001848FEF035F918491648FEF79FFB0FE0DB
:104C200016A0FEF70BFF1348FEF02AF912491148AF
:104C3000FEF794FB04E0214617A0FEF7FFFE00BF3D
:104C400000BF10BD526573657474696E672045437B
:104C5000552028747970653A202564290A000000DF
:104C60000CED00E00000FA056B536F66745265733B
:104C700065740A0094010020EC4D10086B456E61CC
:104C8000626C655261706964506F776572536875C4
:104C900074446F776E0A0000756E6B6E6F776E20CE
:104CA000726573657420747970652025640A00004C
:104CB00038B5054642F224004459A0680090627855
:104CC000217828466368FEF7D5FA022038BD000037
:104CD0002DE9F04786B004468A46174698464FF0BD
:104CE000FF3500200590A1461D4B0FCB01AE0FC62E
:104CF00009F10C00019048300390002621E0BAB27F
:104D000001A951F8360005AB5146FFF79DFD054658
:104D100015F1050F0CD0B5F1FF3F0BD06DB901A80F
:104D200000EBC600007988F80000BDF814500BE0D5
:104D3000002505E04FF0FF3506E06FF0010503E0C8
:104D4000761C022EDBD300BF002D05DD002000E025
:104D5000401CA842FCDB00BF284606B0BDE8F08737
:104D6000F44D00080020025800010000000802581D
:104D700000200000001C025810000000001802581B
:104D8000040000000004025801000000001802584E
:104D9000080000000018025880000000002002589F
:104DA000000800006273705F537461727454696D1F
:104DB0006572006273705F53746172744175746FD1
:104DC00054696D6572006273705F53746F705469DB
:104DD0006D65720000000000040008000C00100067
:104DE000140000000000010203040102030406078E
:104DF00008090000000000000000000000000000A2
:104E00000100000000009600DC050000000000002A
:104E10000A00000000000000814B100800000000A4
:104E200000000000814B100800000000000000009E
:104E300000000000814B100800000000000000008E
:104E400000000000814B100800000000000000007E
:104E50000000FF0F00000000000000000000FF0F36
:104E60000000000000000000814B1008000000005E
:104E700000000000814B1008B14C0008352E1008CE
:104E800095451008634B1008594C1008734B1008D7
:104E9000352E1008000000002301000067450000C7
:104EA000AB890000EFCD0000C84E000800000020D4
:104EB000940100004C001008F04E000894010020FE
:104EC0001C480000943A000801130296880012B0B2
:104ED00014A691FEB9D741AF82CC4EE94747284F7F
:104EE000D1421052015890D0030090D00302180113
:020000040810E2
:10000000202A04DB203A00FA02F1002070479140D8
:10001000C2F1200320FA03F3194390407047421CB9
:1000200010F8011B0029FBD1801A7047202A04DB3D
:10003000203A21FA02F00021704721FA02F3D04061
:10004000C2F12002914008431946704730B58C1820
:1000500010F8012B12F00F0301D110F8013B120927
:1000600006D110F8012B03E010F8015B01F8015BE9
:100070005B1EF9D101E001F8013B521EFBD1A14208
:10008000E6D3002030BD000000200149087370470E
:10009000802400201CB53148007830B12F4880887A
:1000A00018B12E48007B012800D11CBD2B48407898
:1000B000E8B92A48808800284DDD28480089401C7E
:1000C00080B2264908814988884244DB002040F2FA
:1000D000DC510123224ACDE900101946214804F0E1
:1000E000F5F800201D4908810120487033E01B48C5
:1000F000407801282FD119480089401C80B2174947
:1001000008818988884226DB1448C088002812DDCF
:1001100012484089401C80B210494881C9888842F1
:1001200002DB00200D4908700C48007818B9002047
:100130000A498880B9E7002008490881487041F2DF
:10014000883040F2DC510123054ACDE90010194600
:10015000044804F0BBF800BFA7E70000802400209B
:10016000000C00400000025801200149086070475F
:100170008001002010B5024800F07EFA10BD00009A
:100180007822002010B501464A6B0868D0F8840038
:100190004FF6FC74A04340EA82000C68C4F8840067
:1001A0000868D0F8840020F47F04088F44EA0040F7
:1001B0000C68C4F88400886B02440868D0F8880092
:1001C0004FF6FC74A04340EA82000C68C4F8880033
:1001D0000868D0F8880020F4FE04888F44EA0040C4
:1001E0000C68C4F88800C86B02EB40020868D0F8BD
:1001F000A0004FF6FC74A04340EA82000C68C4F8EB
:10020000A0000868D0F8A00020F4FE044020405A66
:1002100044EA00400C68C4F8A000D1E9104004FB97
:1002200000220868D0F8B0004FF6FC74A04340EA02
:1002300082000C68C4F8B0000868D0F8B00020F460
:10024000FE04B1F8480044EA00400C68C4F8B0006D
:10025000D1E9124004FB00220868D0F8AC004FF648
:10026000FC74A04340EA82000C68C4F8AC00D1E9F9
:10027000144004FB00220868D0F8F0004FF6FC742C
:10028000A04340EA82000C68C4F8F0000868D0F887
:10029000F00020F47C14B1F8580044EA00400C68E7
:1002A000C4F8F000886D02EB40020868D0F8C00086
:1002B0004FF6FC74A04340EA82000C68C4F8C0000A
:1002C0000868D0F8C00020F47C14B1F85C0044EA5F
:1002D00000400C68C4F8C0000868D0F8C00020F0E6
:1002E0007C5491F8600044EA00600C68C4F8C000D7
:1002F0002A4C486B04EB8000C866CC6E886B04EB1C
:1003000080040C670C6FC86B04EBC0044C67D1E928
:10031000100460434C6F04EB80048C67D1E9120435
:1003200060438C6F04EB8004CC67D1E91404604314
:10033000CC6F04EB8004802044504458886D04EB5B
:10034000C004842044508C6EC86D6043842464587B
:1003500004EB8004882044508C6E086E604388242F
:10036000645804EB80049020445040580C4CA04248
:1003700009D99831486840F020004860032001F80E
:100380009809012010BDCB6E02E0002018601B1DF3
:10039000902040589842F8D80020F3E700AC004085
:1003A000FCD300400348006840F0010001490860A8
:1003B00070470000200400582DE9F04104460E4625
:1003C0001746706800B900E000BF94F89800022852
:1003D00032D12068D0F8C00000F07C5040B9D4F889
:1003E0009C0040F02000C4F89C000120BDE8F08192
:1003F0002068D0F8C40000F4001038B1D4F89C0094
:1004000040F40070C4F89C000120EFE72068D0F8A9
:10041000C400C0F304452B463A463146204600F757
:100420008FF80120A8402168C1F8D0000120A84021
:10043000C4F894000020D9E7D4F89C0040F00800EC
:10044000C4F89C000120D1E770B50446049D94F8DF
:10045000980001280AD1080140EA820040EA4300DE
:1004600028432668C6F88000002070BDD4F89C00A0
:1004700040F00400C4F89C000120F6E7704700003B
:100480002DE9F04304460D469C46002394F89880DD
:10049000B8F1020F74D1402D38D12068D0F8A000F7
:1004A00000F4FE0040B9D4F89C0040F02000C4F8ED
:1004B0009C000120BDE8F0832068D0F8A40000F083
:1004C0007F0038B9D4F89C0040F48070C4F89C00D8
:1004D0000120EFE72068D0F8A400C0F3006040B12D
:1004E0002068D0F8A0004FF00049B9EBD07F00D1D0
:1004F00001232068D0F8A400C0F305200344606CF9
:100500005843D4F8749009EB80014BE0412D38D169
:100510002068D0F8B00000F4FE0038B9D4F89C0090
:1005200040F02000C4F89C000120C3E72068D0F808
:10053000B40000F07F0038B9D4F89C0040F480701B
:10054000C4F89C000120B5E72068D0F8B400C0F3DF
:10055000006040B12068D0F8B0004FF00049B9EB1E
:10056000D07F00D101232068D0F8B400C0F305206B
:100570000344E06C5843D4F8789009EB800111E013
:100580006EE0206DA84207D8D4F89C0040F020000F
:10059000C4F89C0001208DE7606D6843D4F87C901E
:1005A00009EB8001086800F080405060506820B975
:1005B0000868C0F38A40106003E0086820F06040DB
:1005C0001060086800F000509060086800F000407B
:1005D0001061091D088880B2D061086800F470209D
:1005E000D060086800F480105061086800F40010C2
:1005F00090610868C0F3066010620868C00F50621E
:10060000091D0F46002603E0B85D0CF80600761CB5
:10061000DFF85C90D06809EB10400078B042F3D866
:10062000402D03D12068C0F8A83017E0412D03D138
:100630002068C0F8B83011E0202D06D20120A84073
:10064000D4F80090C9F8980008E005F01F090120CF
:1006500000FA09F0D4F80090C9F89C00002029E7BE
:10066000D4F89C0040F00800C4F89C00012021E769
:10067000144E1008704700002DE9F04F89B0044671
:10068000F54800688507F448001D006805EA807594
:100690002068006D00F470462068406D06402068B8
:1006A000006D00F00F072068406D07402068006D66
:1006B00000F0F0082068406D00EA08082068006D2E
:1006C00000F071592068406D00EA09092068006D4A
:1006D00000F0607A2068406D00EA0A0A2068406DE8
:1006E00000F4807080B12068006D00F4807058B113
:1006F00000BF4FF48070216808650020D64908606B
:1007000000BF2046FFF7B6FF2068406D00F4806010
:10071000D8B12068006D00F48060B0B12068D0F8D6
:10072000DC0007902068D0F8E400079908400790A3
:1007300000BF4FF48060216808650020C64908604A
:1007400000BF2046079900F7B7F865B100BFC3485E
:10075000284021680865A80FBF49086000BF2946E6
:10076000204600F753F866B100BFBC48304021680E
:100770000865B00FB849086000BF3146204600F751
:100780009CF867B100BFB548384021680865B80FCC
:10079000B149086000BF3946204600F06DFBB8F152
:1007A000000F0ED000BFAD4808EA000021680865C0
:1007B0004FEA9870A849086000BF4146204600F003
:1007C00069FB2068406D00F4006080B12068006D16
:1007D00000F4006058B100BF4FF400602168086564
:1007E00000209D49086000BF204600F059FB2068AA
:1007F000406D00F40070D8B12068006D00F4007006
:10080000B0B12068D0F8D80008902068D0F8E00097
:1008100008990840089000BF4FF4007021680865EF
:1008200000208D49086000BF2046089900F036FB83
:100830002068406D00F4002080B12068006D00F455
:10084000002058B100BF4FF4002021680865002047
:100850008149086000BF204600F710F82068406D0D
:1008600000F4803080B12068006D00F4803058B111
:1008700000BF4FF480302168086500207649086089
:1008800000BF204600F009FB2068406D00F4802086
:1008900080B12068006D00F4802058B100BF4FF493
:1008A00080202168086500206B49086000BF204651
:1008B00000F701F82068406D00F4003098B120681E
:1008C000006D00F4003070B100BF4FF400302168BB
:1008D000086500206049086000BFD4F89C0040F023
:1008E0008000C4F89C00BAF1000F0ED000BF5B4836
:1008F0000AEA0000216808654FEA9A7056490860C4
:1009000000BF51462046FFF6B8FFB9F1000F10D0E6
:1009100000BF524809EA0000216808654FEA997053
:100920004D49086000BFD4F89C0040EA0900C4F8B3
:100930009C004B49206888427DD16068806800F047
:10094000030000287ED06068006A00F00F0B60682A
:10095000406A00EA0B0B6068006A00F03000069005
:100960006068406A0699084006906068006A00F472
:10097000C07005906068406A0599084005906068FD
:10098000006A00F4FC4004906068406A04990840E2
:1009900004906068006A00F4F02003906068406A88
:1009A000039908400390BBF1000F06D06068C0F8BF
:1009B00020B05946204600F06EFA069830B10698ED
:1009C000616808622046069900F066FA6068406A2D
:1009D00000F04000A8B16068006A00F0400080B1FB
:1009E0006068C06B000C02906068C06B00F03F0054
:1009F00001904020616808622046DDE90121FFF690
:100A000059FF059830B1059861680862204605993C
:100A1000FFF64FFF049840B1049861680862D4F86B
:100A20009C0004990843C4F89C00039818B10398EB
:100A30006168086200E005E0D4F89C00039908436F
:100A4000C4F89C00D4F89C0010B12046FFF716FDB6
:100A500009B0BDE8F08F000010A80040FFFFCF3FB5
:100A600000A0004070B594B004464C22B34901A8E0
:100A7000FFF65FFC14B9012014B070BDB0492068C6
:100A8000884203D1206800F580706060A068B0F5EE
:100A9000407F00D100BF206C00B100BFA06C00B14E
:100AA00000BF206D00B100BF206E00B100BFD4E9CF
:100AB0001710084400B100BF94F8980028B900202E
:100AC00084F89900204600F03DF92068806920F004
:100AD000100021688861FFF6F5FF05460EE0FFF67D
:100AE000F1FF401B0A2809D99834606840F00100E2
:100AF0006060032004F898090120BDE72068806940
:100B000000F008000828EAD02068806940F0010061
:100B100021688861FFF6D6FF05460EE0FFF6D2FF9A
:100B2000401B0A2809D99834606840F001006060D1
:100B3000032004F8980901209EE72068806900F0EE
:100B400001000028EAD02068806940F00200216896
:100B50008861207C012806D12068806920F040004F
:100B60002168886105E02068806940F040002168C4
:100B70008861607C012806D12068806940F480404B
:100B80002168886105E02068806920F48040216840
:100B90008861A07C012806D12068806920F48050FB
:100BA0002168886105E02068806940F480502168F0
:100BB00088612068806920F44070A168084321683A
:100BC00088612068806920F0A4002168886120681D
:100BD000006920F0100021680861E068012806D152
