:020000040800F2
:1000000088060020910100085106000849060008F2
:100010004D0600083F0400084D08000800000000DD
:10002000000000000000000000000000750600084D
:10003000430400080000000053060008E907000818
:10004000AB010008AB010008AB010008AB010008E0
:10005000AB010008AB010008AB010008AB010008D0
:10006000AB010008AB010008AB010008AB010008C0
:10007000AB010008AB010008AB010008AB010008B0
:10008000AB010008AB010008AB010008AB010008A0
:10009000AB010008AB010008AB010008AB01000890
:1000A000AB010008AB010008AB010008AB01000880
:1000B000AB010008AB010008AB010008AB01000870
:1000C000AB010008AB010008AB010008AB01000860
:1000D000AB010008AB010008AB010008AB01000850
:1000E000AB010008AB010008AB01000800F002F80A
:1000F00000F03FF80AA090E8000C82448344AAF183
:100100000107DA4501D100F034F8AFF2090EBAE880
:100110000F0013F0010F18BFFB1A43F0010318473B
:100120001008000030080000103A24BF78C878C1D9
:10013000FAD8520724BF30C830C144BF04680C60ED
:10014000704700000023002400250026103A28BF35
:1001500078C1FBD8520728BF30C148BF0B60704739
:10016000642900F07D80002070471FB51FBD10B5C9
:1001700010BD00F02AF91146FFF7F7FF00F068FB09
:1001800000F048F903B4FFF7F2FF03BC00F050F9A8
:100190000948804709480047FEE7FEE7FEE7FEE71B
:1001A000FEE7FEE7FEE7FEE7FEE7FEE70448054957
:1001B000054A064B70470000ED070008ED000008F7
:1001C0008800002088060020880200208802002085
:1001D0000FB41CB5074B06AA7B44694600900598EE
:1001E00000F0DBF80020694600F0EAF81CBC5DF87E
:1001F00014FB0000E50100002DE9F0410E46044625
:10020000002020622046E168884730B3252805D0C9
:10021000D4E901219047206A401CF2E7E1682046BA
:1002200000278847050018D0A5F14100192802D8F9
:1002300020354FF400673246294620462760FFF7F5
:100240008FFF40B1012804D0F61D26F007060836BE
:10025000D8E7361DD6E72846DAE7206ABDE8F08100
:100260002DE9F0410646002410687529314616A58F
:1002700010D0AFF30080002802DA404213A507E057
:1002800031688A0701D512A502E0490704D511A5F6
:10029000012401E0AFF3008000210A2206F12407C7
:1002A00009E0B0FBF2FCB0FBF2F302FB1C003030C3
:1002B00078541846491C0028F3D123462A46304674
:1002C000BDE8F04100F00BB8000000002D00000078
:1002D0002B000000200000007047704770472DE998
:1002E000F0470D4699469246044600F124080168FD
:1002F000880604D5E06921F01001216000E00120AA
:10030000A84201DD471B00E00027A1697A1902EB32
:100310000900081AA0612078C00602D42046AFF375
:100320000080002608E0D4E901211AF80600904771
:10033000206A401C761C20624E45F4DB2078C00603
:100340000AD52046AFF3008006E0D4E90121302031
:100350009047206A401C2062381EA7F10107F4DC98
:1003600007E0D4E9012118F805009047206A401CF5
:100370002062281EA5F10105F3DC2046AFF30080C2
:100380002078000602D50220BDE8F0870120FBE7B7
:1003900001694A1C02610878704700B58FB0CDE949
:1003A00001310021059105497944CDE90310114639
:1003B0006846FFF721FF0FB000BD0000E5FFFFFF1B
:1003C0000A6802F8010B0A607047754600F02CF8C5
:1003D000AE4605006946534620F00700854618B032
:1003E00020B5FFF7E3FEBDE820404FF000064FF0D8
:1003F00000074FF000084FF0000B21F00701AC465A
:10040000ACE8C009ACE8C009ACE8C009ACE8C00978
:100410008D46704710B50446AFF300802046BDE816
:100420001040FFF7AFBE00000048704728000020D2
:1004300001491820ABBEFEE726000200704700BF4E
:10044000FEE7704701B502E00098401E009000985A
:100450000028F9D108BD000010B504462E2C10D19B
:100460000121124800F0ECF84CF25030FFF7EAFF9F
:1004700001210E4800F0E6F84CF25030FFF7E2FFA1
:1004800010E02D2C0ED10121084800F0D9F80848C1
:10049000FFF7D8FF0121054800F0D4F84CF25030A6
:1004A000FFF7D0FF0348FFF7CDFF10BD000C014060
:1004B000F0490200A08601002DE9FC4106463246C3
:1004C00011A16846FFF784FE002413E01DF8040024
:1004D000A0F130080D4850F82870002503E0785D41
:1004E000FFF7BAFF6D1C785D0028F8D10848FFF7C8
:1004F000A9FF641C1DF804000028E7D10548FFF798
:10050000A1FFBDE8FC810000256400000000002080
:10051000A0860100E09304002DE9F0410246002589
:100520000026002000230024002791F803C00CF0CF
:100530000F0591F803C00CF0100CBCF1000F03D0B4
:1005400091F802C04CEA050591F800C0BCF1000F1B
:1005500031D0146800202BE04FF0010C0CFA00F3AE
:10056000B1F800C00CEA03069E4220D183004FF090
:100570000F0C0CFA03F7BC4305FA03FC4CEA040425
:1005800091F803C0BCF1280F06D14FF0010C0CFA12
:1005900000FCC2F814C00AE091F803C0BCF1480F97
:1005A00005D14FF0010C0CFA00FCC2F810C0401C41
:1005B0000828D1D31460B1F800C0BCF1FF0F34DDBE
:1005C000546800202EE000F1080C4FF0010808FAF2
:1005D0000CF3B1F800C00CEA03069E4221D183005F
:1005E0004FF00F0C0CFA03F7BC4305FA03FC4CEA7E
:1005F000040491F803C0BCF1280F05D100F1080CE8
:1006000008FA0CF8C2F8148091F803C0BCF1480F46
:1006100007D100F1080C4FF0010808FA0CF8C2F8F5
:100620001080401C0828CED35460BDE8F0810246FB
:10063000002093680B400BB1012000E000207047C0
:10064000416170470161704700BFFEE700BFFEE7F0
:100650007047704729B1064A92690243044B9A6178
:1006600004E0034A92698243014B9A61704700009B
:100670000010024070470000F8B54FF0FF364820E8
:100680008DF8030003208DF802000F20ADF8000064
:1006900069461A48FFF740FF10208DF80300F0204C
:1006A000ADF8000069461548FFF736FFF021134802
:1006B000FFF7C8FF00241CE0201D0122824091B2F8
:1006C0000E48FFF7BDFF002509E00120A84081B2D8
:1006D0000A48FFF7ACFF08B904EB85066D1C042D32
:1006E000F3DB201D0122824091B20448FFF7AAFFEC
:1006F000641C042CE0DB3046F8BD0000000801401B
:1007000010B500F001F810BD0CB50020019000906C
:100710003348006840F480303149086000BF3048F9
:10072000006800F4003000900198401C019000988F
:1007300018B90198B0F5A06FF1D12948006800F40C
:10074000003010B10120009001E0002000900098DE
:10075000012843D12348006840F010002149086077
:100760000846006820F0030008600846006840F072
:10077000020008601A484068194948600846406805
:1007800048600846406840F4806048600846406819
:1007900020F47C1048600846406840F4E810486047
:1007A0000846006840F08070086000BF0C48006890
:1007B00000F000700028F9D00948406820F00300DC
:1007C000074948600846406840F00200486000BFA2
:1007D0000348406800F00C000828F9D10CBD000067
:1007E00000100240002002407047000010B513487E
:1007F000006840F00100114908600846406810494F
:1008000008400E494860084600680E4908400B49F8
:1008100008600846006820F48020086008464068A8
:1008200020F4FE0048604FF41F008860FFF768FF67
:100830004FF000600449086010BD00000010024045
:100840000000FFF8FFFFF6FE08ED00E000BFFEE746
:1008500086B001210820FFF7FDFE0120ADF814004D
:1008600010208DF8170003208DF8160005A91B48ED
:10087000FFF752FE002430E0FFF7FEFE0546002D94
:100880002ADB092D28DC2046641C01A941F82050F0
:10089000042C21D10121019801EB40004FF47A7121
:1008A00048430122029902EB410101EBC10202EB34
:1008B000011100EB81010122039802EB400000EBE3
:1008C000800001EB4001049802EB40000E18304616
:1008D000FFF7F2FD002400BF00BFCDE7000C014090
:1008E0002D2D2D2D2D0000002E2D2D2D2D00000045
:1008F0002E2E2D2D2D0000002E2E2E2D2D00000031
:100900002E2E2E2E2D0000002D2D2D2D2E00000020
:100910002D2D2D2E2E0000002D2D2E2E2E00000010
:100920002D2E2E2E2E0000002E2E2E2E2E000000FC
:1009300050090008000000202800000028010008DD
:100940007809000828000020600600004401000823
:10095000E0080008E8080008F0080008F8080008A7
:1009600000090008280900082009000818090008E3
:08097000100900080809000845
:04000005080001915D
:00000001FF
